:060000000A128A11122809
:10000800FE00030EF7000408F8000A08F90083123E
:1000180003137F08FA000A128A1129280A128A1182
:100028001528FD0183132030840031300A128A110B
:1000380072220A128A11A0308400E0300A128A1152
:10004800722283010A128A11F7280C1C4528CE3027
:100058008F00FA308E000130A507003003180130F8
:10006800A607003003180130A70700300318013035
:10007800A8070A128A1103220A128A11831203138B
:100088000C108C1EEC281A08F3007308AF002F0818
:10009800031D2F1FE928AF1E9C282F08703A031D47
:1000A80057285A307B282F1E7E282F080F39F30037
:1000B800F401F309F409F30A0319F40A370873077A
:1000C800F50074080318740AF6007608803AFF00F1
:1000D80080307F02031D722801307502031CDC2862
:1000E800831203132F080F39FF3A013E3707F30035
:1000F80073089A280F302F05F30037087307F400A8
:10010800F501F50D7508803AFF0080307F02031D68
:100118008F28803074020318DC280F3083120313F1
:100128002F05F30037087307F4007408B700E928AF
:100138002F08503A031DA2285A30C6282F1EC92856
:100148002F080F39F300F401F309F409F30A03192E
:10015800F40A36087307F50074080318740AF600E1
:100168007608803AFF0080307F02031DBD280130E9
:100178007502031CDC28831203132F080F39FF3A7A
:10018800013E3607F3007308E8280F302F05F30007
:1001980036087307F400F501F50D7508803AFF007D
:1001A80080307F02031DDA2880307402031CDF28A8
:1001B80083120313E9280F30831203132F05F3006A
:1001C80036087307F4007408B600831203138C1200
:1001D8007A08FF0079088A0078088400770E83007F
:1001E800FE0E7E0E09000A128A11B9210A128A111E
:1001F8008312031330143008860000302802031DD0
:100208000F2900302702031D0F2900302602031D85
:100218000F2932302502031C01290030A8000030C4
:10022800A7000030A6000030A500AF08031D222952
:10023800FD30B5003508B00530088600FE30B50041
:100248003508B0053008860000302802031D36291D
:1002580000302702031D362900302602031D3629E7
:1002680032302502031C28290030A8000030A700DE
:100278000030A6000030A5002F0803194F29B0143C
:10028800300886002F080A128A117A220A128A1167
:1002980083120313AF013608B5003508B1000030EA
:1002A8000A128A115E220A128A118312031337086E
:1002B800B5003508B10001300A128A115E220A120F
:1002C8008A11FC28FF30FB0083120313B3003308A4
:1002D800FC0083160313181183160317871183165E
:1002E80003139A01822981307E2940307E292A30E1
:1002F8007E292430831603139900A6298312031339
:100308003208253A031992296E3A031997293B3A7C
:1003180003199C29F33A0319A129A6293108803A1F
:1003280003197729A6293108003A03197929A6293A
:100338003108803A03197B29A6293108403A031964
:100348007D29A629831603131813981298161812D4
:100358001815831203139817181318169811831673
:1003680003138C160B178B1708000830831603131A
:100378008F008312031386018316031385018312EA
:1003880003138501831603138601831203133008B0
:1003980086008E018F01313090005A30B400340845
:1003A800B6005A30B4003408B7008030B1002530A8
:1003B800B2000A128A1166210A128A110A128A11D7
:1003C8003D220A128A11831203133608B400340836
:1003D800B10000300A128A115E220A128A118312B1
:1003E80003133708B4003408B10001300A128A1127
:1003F8005E22831603130C140B178B170800F201E7
:10040800FF30FD008312031385000730F1007D30B3
:10041800F000F00B0D2AF10B0D2AF201B430720234
:100428000318382A8312031329087206031D222A87
:10043800FE30F0007008FD057D0885002A08720668
:10044800031D2C2AFD30F0007008FD057D0885008D
:100458000830F000F00B2E2A0130F0007008F20787
:10046800B4307202031C162AFD018312031385019E
:10047800080083120313B101B201FD018501B10126
:10048800B2013208803AFF0080307F02031D4E2AF5
:100498000230310203180800831203133108293E81
:1004A8008400831380010130B1070318B20A0030B9
:1004B800B207452A83120313B300803031020318B0
:1004C800080002303302031808003108B20033086C
:1004D800293E8400320883138000080064008001EC
:1004E800840A0406031900340406732A83120313CA
:0C04F800B1000C1E7D2A3108990008009C
:04400E00E2E0FFFEEF
:00000001FF
